{
  "contractName": "UserCertificates",
  "abi": [
    {
      "constant": true,
      "inputs": [],
      "name": "price",
      "outputs": [
        {
          "name": "",
          "type": "uint256"
        }
      ],
      "payable": false,
      "stateMutability": "view",
      "type": "function"
    },
    {
      "inputs": [],
      "payable": false,
      "stateMutability": "nonpayable",
      "type": "constructor"
    },
    {
      "anonymous": false,
      "inputs": [
        {
          "indexed": true,
          "name": "_from",
          "type": "address"
        },
        {
          "indexed": true,
          "name": "_to",
          "type": "address"
        },
        {
          "indexed": false,
          "name": "_ipfsHash",
          "type": "string"
        }
      ],
      "name": "CertificateIssued",
      "type": "event"
    },
    {
      "anonymous": false,
      "inputs": [
        {
          "indexed": true,
          "name": "_from",
          "type": "address"
        },
        {
          "indexed": true,
          "name": "_to",
          "type": "address"
        },
        {
          "indexed": false,
          "name": "_ipfsHash",
          "type": "string"
        }
      ],
      "name": "CertificateRevoked",
      "type": "event"
    },
    {
      "constant": true,
      "inputs": [
        {
          "name": "_a",
          "type": "string"
        },
        {
          "name": "_b",
          "type": "string"
        }
      ],
      "name": "stringsEqual",
      "outputs": [
        {
          "name": "",
          "type": "bool"
        }
      ],
      "payable": false,
      "stateMutability": "pure",
      "type": "function"
    },
    {
      "constant": false,
      "inputs": [
        {
          "name": "_price",
          "type": "uint256"
        }
      ],
      "name": "setPrice",
      "outputs": [],
      "payable": false,
      "stateMutability": "nonpayable",
      "type": "function"
    },
    {
      "constant": false,
      "inputs": [
        {
          "name": "amount",
          "type": "uint256"
        }
      ],
      "name": "withdrawFunds",
      "outputs": [
        {
          "name": "",
          "type": "bool"
        }
      ],
      "payable": false,
      "stateMutability": "nonpayable",
      "type": "function"
    },
    {
      "constant": true,
      "inputs": [
        {
          "name": "ipfsHash",
          "type": "string"
        }
      ],
      "name": "certificateExists",
      "outputs": [
        {
          "name": "",
          "type": "bool"
        }
      ],
      "payable": false,
      "stateMutability": "view",
      "type": "function"
    },
    {
      "constant": false,
      "inputs": [
        {
          "name": "user",
          "type": "address"
        },
        {
          "name": "ipfsHash",
          "type": "string"
        }
      ],
      "name": "addCertificate",
      "outputs": [],
      "payable": true,
      "stateMutability": "payable",
      "type": "function"
    },
    {
      "constant": false,
      "inputs": [
        {
          "name": "user",
          "type": "address"
        },
        {
          "name": "ipfsHash",
          "type": "string"
        }
      ],
      "name": "revokeCertificate",
      "outputs": [],
      "payable": false,
      "stateMutability": "nonpayable",
      "type": "function"
    },
    {
      "constant": true,
      "inputs": [
        {
          "name": "user",
          "type": "address"
        }
      ],
      "name": "getNumberCertificatesUser",
      "outputs": [
        {
          "name": "",
          "type": "uint256"
        }
      ],
      "payable": false,
      "stateMutability": "view",
      "type": "function"
    },
    {
      "constant": true,
      "inputs": [
        {
          "name": "user",
          "type": "address"
        },
        {
          "name": "index",
          "type": "uint256"
        }
      ],
      "name": "getUserCertificateAtIndex",
      "outputs": [
        {
          "name": "",
          "type": "address"
        },
        {
          "name": "",
          "type": "string"
        }
      ],
      "payable": false,
      "stateMutability": "view",
      "type": "function"
    }
  ],
  "bytecode": "0x608060405234801561001057600080fd5b50336000806101000a81548173ffffffffffffffffffffffffffffffffffffffff021916908373ffffffffffffffffffffffffffffffffffffffff16021790555060006001819055506114d9806100686000396000f3fe6080604052600436106100865760003560e01c80634a14188d116100595780634a14188d1461041d57806391b7f5ed146104f85780639f1bf46014610533578063a035b1fe1461063a578063b358baf01461066557610086565b80630655f0371461008b57806313d199501461016b578063155dd5ee146102e25780631f16fb4d14610335575b600080fd5b34801561009757600080fd5b50610151600480360360208110156100ae57600080fd5b81019080803590602001906401000000008111156100cb57600080fd5b8201836020820111156100dd57600080fd5b803590602001918460018302840111640100000000831117156100ff57600080fd5b91908080601f016020809104026020016040519081016040528093929190818152602001838380828437600081840152601f19601f8201169050808301925050505050505091929192905050506106ca565b604051808215151515815260200191505060405180910390f35b34801561017757600080fd5b506102c86004803603604081101561018e57600080fd5b81019080803590602001906401000000008111156101ab57600080fd5b8201836020820111156101bd57600080fd5b803590602001918460018302840111640100000000831117156101df57600080fd5b91908080601f016020809104026020016040519081016040528093929190818152602001838380828437600081840152601f19601f8201169050808301925050505050505091929192908035906020019064010000000081111561024257600080fd5b82018360208201111561025457600080fd5b8035906020019184600183028401116401000000008311171561027657600080fd5b91908080601f016020809104026020016040519081016040528093929190818152602001838380828437600081840152601f19601f820116905080830192505050505050509192919290505050610762565b604051808215151515815260200191505060405180910390f35b3480156102ee57600080fd5b5061031b6004803603602081101561030557600080fd5b810190808035906020019092919050505061082f565b604051808215151515815260200191505060405180910390f35b34801561034157600080fd5b5061041b6004803603604081101561035857600080fd5b81019080803573ffffffffffffffffffffffffffffffffffffffff1690602001909291908035906020019064010000000081111561039557600080fd5b8201836020820111156103a757600080fd5b803590602001918460018302840111640100000000831117156103c957600080fd5b91908080601f016020809104026020016040519081016040528093929190818152602001838380828437600081840152601f19601f82011690508083019250505050505050919291929050505061091f565b005b6104f66004803603604081101561043357600080fd5b81019080803573ffffffffffffffffffffffffffffffffffffffff1690602001909291908035906020019064010000000081111561047057600080fd5b82018360208201111561048257600080fd5b803590602001918460018302840111640100000000831117156104a457600080fd5b91908080601f016020809104026020016040519081016040528093929190818152602001838380828437600081840152601f19601f820116905080830192505050505050509192919290505050610dd9565b005b34801561050457600080fd5b506105316004803603602081101561051b57600080fd5b810190808035906020019092919050505061107d565b005b34801561053f57600080fd5b5061058c6004803603604081101561055657600080fd5b81019080803573ffffffffffffffffffffffffffffffffffffffff169060200190929190803590602001909291905050506110e0565b604051808373ffffffffffffffffffffffffffffffffffffffff1673ffffffffffffffffffffffffffffffffffffffff16815260200180602001828103825283818151815260200191508051906020019080838360005b838110156105fe5780820151818401526020810190506105e3565b50505050905090810190601f16801561062b5780820380516001836020036101000a031916815260200191505b50935050505060405180910390f35b34801561064657600080fd5b5061064f61125f565b6040518082815260200191505060405180910390f35b34801561067157600080fd5b506106b46004803603602081101561068857600080fd5b81019080803573ffffffffffffffffffffffffffffffffffffffff169060200190929190505050611265565b6040518082815260200191505060405180910390f35b6000600115156003836040518082805190602001908083835b6020831061070657805182526020820191506020810190506020830392506106e3565b6001836020036101000a038019825116818451168082178552505050505050905001915050908152602001604051809103902060009054906101000a900460ff1615151415610758576001905061075d565b600090505b919050565b600060608390506060839050805182511461078257600092505050610829565b60008090505b82518110156108215781818151811061079d57fe5b602001015160f81c60f81b7effffffffffffffffffffffffffffffffffffffffffffffffffffffffffffff19168382815181106107d657fe5b602001015160f81c60f81b7effffffffffffffffffffffffffffffffffffffffffffffffffffffffffffff1916146108145760009350505050610829565b8080600101915050610788565b506001925050505b92915050565b60008060009054906101000a900473ffffffffffffffffffffffffffffffffffffffff1673ffffffffffffffffffffffffffffffffffffffff163373ffffffffffffffffffffffffffffffffffffffff161461088a57600080fd5b3073ffffffffffffffffffffffffffffffffffffffff16318211156108ae57600080fd5b6000809054906101000a900473ffffffffffffffffffffffffffffffffffffffff1673ffffffffffffffffffffffffffffffffffffffff166108fc839081150290604051600060405180830381858888f19350505050158015610915573d6000803e3d6000fd5b5060019050919050565b610928816106ca565b61093157600080fd5b6000600260008473ffffffffffffffffffffffffffffffffffffffff1673ffffffffffffffffffffffffffffffffffffffff1681526020019081526020016000209050600080905060008090505b811580156109905750828054905081105b15610a6357610a548382815481106109a457fe5b90600052602060002090600202016001018054600181600116156101000203166002900480601f016020809104026020016040519081016040528092919081815260200182805460018160011615610100020316600290048015610a495780601f10610a1e57610100808354040283529160200191610a49565b820191906000526020600020905b815481529060010190602001808311610a2c57829003601f168201915b505050505085610762565b9150808060010191505061097f565b81610a6d57600080fd5b3373ffffffffffffffffffffffffffffffffffffffff16836001830381548110610a9357fe5b906000526020600020906002020160000160009054906101000a900473ffffffffffffffffffffffffffffffffffffffff1673ffffffffffffffffffffffffffffffffffffffff161480610b3357506000809054906101000a900473ffffffffffffffffffffffffffffffffffffffff1673ffffffffffffffffffffffffffffffffffffffff163373ffffffffffffffffffffffffffffffffffffffff16145b610b3c57600080fd5b826001820381548110610b4b57fe5b9060005260206000209060020201600080820160006101000a81549073ffffffffffffffffffffffffffffffffffffffff0219169055600182016000610b9191906112b1565b5050600183805490501115610c715782600184805490500381548110610bb357fe5b9060005260206000209060020201836001830381548110610bd057fe5b90600052602060002090600202016000820160009054906101000a900473ffffffffffffffffffffffffffffffffffffffff168160000160006101000a81548173ffffffffffffffffffffffffffffffffffffffff021916908373ffffffffffffffffffffffffffffffffffffffff16021790555060018201816001019080546001816001161561010002031660029004610c6c9291906112f9565b509050505b82805480919060019003610c859190611380565b5060006003856040518082805190602001908083835b60208310610cbe5780518252602082019150602081019050602083039250610c9b565b6001836020036101000a038019825116818451168082178552505050505050905001915050908152602001604051809103902060006101000a81548160ff0219169083151502179055508473ffffffffffffffffffffffffffffffffffffffff163373ffffffffffffffffffffffffffffffffffffffff167f17a8b58134fcec218c22d78ee345854100a1e0363dabe4ad1fb60ac7976f16bb866040518080602001828103825283818151815260200191508051906020019080838360005b83811015610d98578082015181840152602081019050610d7d565b50505050905090810190601f168015610dc55780820380516001836020036101000a031916815260200191505b509250505060405180910390a35050505050565b600154803410611078578273ffffffffffffffffffffffffffffffffffffffff163373ffffffffffffffffffffffffffffffffffffffff161415610e1c57600080fd5b610e25826106ca565b15610e2f57600080fd5b600260008473ffffffffffffffffffffffffffffffffffffffff1673ffffffffffffffffffffffffffffffffffffffff16815260200190815260200160002060405180604001604052803373ffffffffffffffffffffffffffffffffffffffff168152602001848152509080600181540180825580915050906001820390600052602060002090600202016000909192909190915060008201518160000160006101000a81548173ffffffffffffffffffffffffffffffffffffffff021916908373ffffffffffffffffffffffffffffffffffffffff1602179055506020820151816001019080519060200190610f279291906113b2565b5050505060016003836040518082805190602001908083835b60208310610f635780518252602082019150602081019050602083039250610f40565b6001836020036101000a038019825116818451168082178552505050505050905001915050908152602001604051809103902060006101000a81548160ff0219169083151502179055508273ffffffffffffffffffffffffffffffffffffffff163373ffffffffffffffffffffffffffffffffffffffff167fe98869eff5832008d971ae0f57ac965902af379423758a0267405d3a63b8cf57846040518080602001828103825283818151815260200191508051906020019080838360005b8381101561103d578082015181840152602081019050611022565b50505050905090810190601f16801561106a5780820380516001836020036101000a031916815260200191505b509250505060405180910390a35b505050565b6000809054906101000a900473ffffffffffffffffffffffffffffffffffffffff1673ffffffffffffffffffffffffffffffffffffffff163373ffffffffffffffffffffffffffffffffffffffff16146110d657600080fd5b8060018190555050565b6000606082600260008673ffffffffffffffffffffffffffffffffffffffff1673ffffffffffffffffffffffffffffffffffffffff168152602001908152602001600020805490501161113257600080fd5b6000600260008673ffffffffffffffffffffffffffffffffffffffff1673ffffffffffffffffffffffffffffffffffffffff168152602001908152602001600020848154811061117e57fe5b906000526020600020906002020190508060000160009054906101000a900473ffffffffffffffffffffffffffffffffffffffff1681600101808054600181600116156101000203166002900480601f01602080910402602001604051908101604052809291908181526020018280546001816001161561010002031660029004801561124c5780601f106112215761010080835404028352916020019161124c565b820191906000526020600020905b81548152906001019060200180831161122f57829003601f168201915b5050505050905092509250509250929050565b60015481565b6000600260008373ffffffffffffffffffffffffffffffffffffffff1673ffffffffffffffffffffffffffffffffffffffff168152602001908152602001600020805490509050919050565b50805460018160011615610100020316600290046000825580601f106112d757506112f6565b601f0160209004906000526020600020908101906112f59190611432565b5b50565b828054600181600116156101000203166002900490600052602060002090601f016020900481019282601f10611332578054855561136f565b8280016001018555821561136f57600052602060002091601f016020900482015b8281111561136e578254825591600101919060010190611353565b5b50905061137c9190611432565b5090565b8154818355818111156113ad576002028160020283600052602060002091820191016113ac9190611457565b5b505050565b828054600181600116156101000203166002900490600052602060002090601f016020900481019282601f106113f357805160ff1916838001178555611421565b82800160010185558215611421579182015b82811115611420578251825591602001919060010190611405565b5b50905061142e9190611432565b5090565b61145491905b80821115611450576000816000905550600101611438565b5090565b90565b6114aa91905b808211156114a657600080820160006101000a81549073ffffffffffffffffffffffffffffffffffffffff021916905560018201600061149d91906112b1565b5060020161145d565b5090565b9056fea165627a7a7230582012b681ba52f9d16b5cd3d6fe6f3e7ab0e7f109890ffe8f4536ea5a16e1702bc50029",
  "source": "pragma solidity ^0.5.1;\r\n\r\n// This is the main contract of our dApp\r\n// It stores the association between users (Ethereum addresses) with their certificates (IPFS hashes)\r\n\r\ncontract UserCertificates {\r\n\r\n\t//A certificate is represented by issuer and hash in IPFS\r\n\tstruct Certificate {\r\n\t\taddress issuer;\r\n\t\tstring ipfsHash;\r\n\t}\r\n\r\n\taddress payable private owner;\r\n\tuint public price;\r\n\tmapping (address => Certificate[]) private userCertificates;\r\n\tmapping (string => bool) private certificates;\r\n\r\n\tmodifier onlyOwner {\r\n\t\trequire(msg.sender == owner);\r\n\t\t_;\r\n\t}\r\n\r\n\tmodifier costs(uint _price) {\r\n\t\tif (msg.value >= _price) {\r\n\t\t\t_;\r\n\t\t}\r\n\t}\r\n\r\n\t//Equal function for 2 strings. Research: this could be more efficient by comparing their hashes\r\n\tfunction stringsEqual(string memory _a, string memory _b) public pure returns (bool) {\r\n\t\tbytes memory a = bytes(_a);\r\n\t\tbytes memory b = bytes(_b);\r\n\t\tif (a.length != b.length) {\r\n\t\t\treturn false;\r\n\t\t}\r\n\t\t// @todo unroll this loop\r\n\t\tfor (uint i = 0; i < a.length; i ++) {\r\n\t\t\tif (a[i] != b[i]) {\r\n\t\t\t\treturn false;\r\n\t\t\t}\r\n\t\t}\r\n\t\treturn true;\r\n\t}\r\n\r\n\tevent CertificateIssued(address indexed _from, address indexed _to, string _ipfsHash);\r\n\tevent CertificateRevoked(address indexed _from, address indexed _to, string _ipfsHash);\r\n\r\n\t constructor() public {\r\n\t\towner = msg.sender;\r\n\t\tprice = 0;//10000000000000000;//wei\r\n\t}\r\n\r\n\t//Set the minimum value to be transfer to create a certificate\r\n\tfunction setPrice(uint _price) onlyOwner public {\r\n\t\tprice = _price;\r\n\t}\r\n\r\n\r\n\t//withdraw funds from contract to owner address\r\n\tfunction withdrawFunds(uint amount) onlyOwner public returns(bool) {\r\n\t\trequire(amount <= address(this).balance);\r\n\t\towner.transfer(amount);\r\n\t\treturn true;\r\n\t}\r\n\r\n\t//Checks if certificate with same ipfs hash has been already published\r\n\tfunction certificateExists(string memory ipfsHash) public view returns (bool) {\r\n\t\tif (certificates[ipfsHash]==true) {\r\n\t\t\treturn true;\r\n\t\t} else {\r\n\t\t\treturn false;\r\n\t\t}\r\n\t}\r\n\r\n\t//Adds a certificate (sender + hash) to a user\r\n\tfunction addCertificate(address user, string memory ipfsHash) public payable costs(price) {\r\n\r\n\t\t//check the sender and receiver are different\r\n\t\trequire (msg.sender != user);\r\n\r\n\t\t//check certificate doesn't exist\r\n\t\trequire(!certificateExists(ipfsHash));\r\n\r\n\t\t//add certificate\r\n\t\tuserCertificates[user].push(Certificate(msg.sender, ipfsHash));\r\n\t\tcertificates[ipfsHash] = true;\r\n\r\n\t\t//trigger event\r\n\t    emit CertificateIssued(msg.sender, user, ipfsHash);\r\n\t}\r\n\r\n\t//Revokes previously added certificate\r\n\tfunction revokeCertificate(address user, string memory ipfsHash) public {\r\n\r\n\t\t//check certificate exist\r\n\t\trequire(certificateExists(ipfsHash));\r\n\r\n\t\tCertificate[] storage certs = userCertificates[user];\r\n\r\n\t\tbool found = false;\r\n\t\tuint i = 0;\r\n\r\n\t\twhile (!found && i<certs.length) {\r\n\t\t\tfound = (stringsEqual(certs[i].ipfsHash, ipfsHash));\r\n\t\t\ti++;\r\n\t\t}\t\t\r\n\r\n\t\trequire(found);//exists\r\n\t\trequire(certs[i-1].issuer == msg.sender || msg.sender == owner);//being revoked for same issuer or owner\r\n\r\n\t\tdelete certs[i-1];\r\n\t\tif (certs.length > 1) {\r\n\t\t\tcerts[i-1] = certs[certs.length-1];//fill the gap\r\n\t\t}\r\n\r\n\t\tcerts.length--;\r\n\t\tcertificates[ipfsHash] = false;\r\n\r\n\t\temit CertificateRevoked(msg.sender, user, ipfsHash);\r\n\t}\r\n\r\n\t//Return the number of certificates associated to user\r\n\tfunction getNumberCertificatesUser(address user) public view returns (uint) {\r\n\t\treturn userCertificates[user].length;\r\n\t}\r\n\r\n\t//Returns certificate for user in specific index position. This is neccesary because currently it is not possible to return array of strings\r\n\tfunction getUserCertificateAtIndex(address user, uint256 index) public view returns (address, string memory) {\r\n\t\trequire(userCertificates[user].length>index);\r\n\r\n\t\tCertificate storage cert = userCertificates[user][index];\r\n\t\treturn (cert.issuer, cert.ipfsHash);\r\n\t}\r\n}",
  "sourcePath": "D:/tesis2/crypto-certfication/contract/contracts/UserCertificate.sol",
  "compiler": {
    "name": "solc",
    "version": "0.5.8+commit.23d335f2.Emscripten.clang"
  },
  "schemaVersion": "3.0.11",
  "updatedAt": "2019-11-24T03:28:02.074Z",
  "devdoc": {
    "methods": {}
  },
  "userdoc": {
    "methods": {}
  }
}